:020000041000EA
:1000000000B5324B212058609868022188439860DF
:10001000D860186158612E4B002199600221596106
:100020000121F02299502B49196001219960352056
:1000300000F044F80222904214D00621196600F024
:1000400034F8196E01211966002018661A6600F04E
:100050002CF8196E196E196E052000F02FF8012189
:100060000842F9D1002199601B49196000215960AB
:100070001A491B48016001219960EB211966A021F2
:10008000196600F012F800219960164914480160C1
:100090000121996001BC002800D000471248134993
:1000A000086003C880F30888084703B5996A0420EC
:1000B0000142FBD001200142F8D103BD02B5186610
:1000C0001866FFF7F2FF186E186E02BD00000240BE
:1000D000000000180000070000035F00212200005C
:1000E000F4000018222000A00001001008ED00E03C
:1000F00000000000000000000000000074B24E7A12
:1001000000200420F7010010C3010010C5010010F9
:10011000C1010010C1010010C1010010C101001097
:10012000C1010010C1010010C101001035570010BD
:10013000C1010010C10100108B570010D5570010ED
:10014000CD010010CD010010CD010010CD01001037
:10015000CD010010CD010010CD010010CD01001027
:10016000CD010010CD010010CD010010CD01001017
:10017000CD010010CD010010CD010010CD01001007
:10018000CD010010CD010010CD010010CD010010F7
:10019000CD010010CD010010CD010010CD010010E7
:1001A000CD010010CD010010CD010010CD010010D7
:1001B000CD010010CD010010CD010010CD010010C7
:1001C00000BE00BE00BE00BE00BE00BE00F04BF888
:1001D000103800BEF2EB88717C790010A079001015
:1001E0003402001090A31AE700202149086006C8D5
:1001F00081F3088810471F48006800282FD10DA4FC
:100200000ECC002902D000F012F8F9E71A491B4A77
:10021000002000E001C19142FCD1194988471949E9
:1002200088471949884700BEFDE701C901C29A42C3
:10023000FBD37047A0790010C0000020C40A002042
:10024000A48300100000042000000420A4830010F8
:1002500000100420001004200000000070470B482C
:1002600002F052FD0047EFF30580C0B27047000076
:1002700008ED00E0000000D0C80A0020681000204F
:100280003113001039030010ED1200105756000012
:1002900006005250ABB36053B078001006005250C5
:1002A000861C0302C0780010060052505422A29D02
:1002B000C878001005005250DE65F468A483001071
:1002C000F8B5C04610B5064C2378002B07D1054B76
:1002D000002B02D0044800E000BF0123237010BDB2
:1002E000C80B002000000000006B0010044B10B58C
:1002F000002B03D00349044800E000BF10BDC046F6
:1003000000000000CC0B0020006B001070B519201D
:1003100000F040F8D0231B06802292045A62D024B9
:1003200024068025AD046561642004F0D3FAA5613C
:10033000642004F0CFFAF2E700B583B003F08EFD3D
:1003400080220023019301330093002352000349CC
:10035000034803F07FFF04F00BF9FEE7006B001089
:100360000D03001010B58300084A944663441C68CE
:1003700040226240C02414408022520113431C607A
:10038000C000034B9C466044416010BD04C0014066
:100390000040014010B501238340D0221206936231
:1003A00093610521FFF7DEFF10BD0000EFF3108021
:1003B00072B6034B1B68002BFBD0BFF35F8F7047F7
:1003C0002C0100D0BFF35F8F024B00221A6080F334
:1003D000108870472C0100D0F8B506000C001500FD
:1003E000FFF7E4FFE308F718F15C0722224001233E
:1003F00093400B4205D1DBB20B433B70FFF7E2FFAA
:10040000F8BD2100280001F00FF80000034B1B6825
:1004100002201840431E9841C0B2704700C00640F9
:10042000002307E0054A9A189200BFF35F8F00216E
:10043000116001331F2BF5D97047C04640000034CE
:10044000054A1078431CDBB21370172B02D9130036
:1004500010221A707047C046B001002070B5040029
:100460000D00062001F0FAF8C000290002F0A0FCFF
:10047000C60908D00E4B9E4217D87F231840013082
:100480003500460800E001256562A6622C34802014
:100490008001044300232360062001F0DFF8800080
:1004A000A901891902F084FC70BD0026014DEBE71B
:1004B000FEFF0000FFFF0000002909D00A22064BC2
:1004C0009C466044434258414000044BC25270472E
:1004D00080225200F3E7C0460080FCBF5C10002081
:1004E00070B505000C00062001F0B8F8002829D0EE
:1004F000164B9D4227D08022D203154B1A60154B14
:100500001A60154B9B6811009943FAD1002128000D
:10051000FFF7D2FF21002800FFF7A0FF2C002C34AA
:10052000E96A60224A406E21114080225201224332
:1005300011600A4B2B6380239B01234310221A6016
:100540000323AB6470BD80221204D6E70080034011
:1005500000E0004000F0004000C000400103000047
:1005600070B505000C00080000F07AFB200000F0D8
:100570004BFC0849200000F08BFBFFF761FF064BA6
:100580009C466044800068602C75A400034BE550D5
:1005900070BDC0467508001040000034340E0020C5
:1005A00010B5002922D003681B7B99421ED8174B37
:1005B0009C466144090183689C4661440C68496813
:1005C000002A19D003681B7B9A4215D883680F480C
:1005D0008446624412019A18106853680200012090
:1005E0008B4201D80ED00020C0B210BD084B094A82
:1005F0003B21094800F07EFE054B064A3B21064898
:1006000000F078FEA242EFD8EDE7C046FFFFFF0FF3
:10061000646B0010846D0010206B001010B5002971
:100620001ED0037B99421BD84B005B18033B046828
:10063000A4466344002919D0002A1DD0914221D03C
:10064000002A25D0047BA24222D8046850008018DA
:10065000033820188170197800291FD11A7010BD35
:10066000104B114A6921114800F044FE104B114A09
:1006700070310E4800F03EFE0F4B0E4A71210B48C0
:1006800000F038FE0D4B0B4A7221084800F032FE94
:10069000044B054A6921054800F02CFE41701A7090
:1006A000DDE7C046986B0010D86D0010B46B0010E9
:1006B000086C0010B46D0010146C0010206C001059
:1006C00070B506000D001400002914D0002A14D0C3
:1006D000806873689847002806D0220029003000FF
:1006E000FFF79CFF280007E02A0021003000FFF7F9
:1006F00095FF200000E0100070BD0800FCE700003E
:10070000F0B583B00500009201930AAB1C780BABE7
:100710001F78002C26D003685A7B944207D101230E
:10072000002B19D1002C3BD1200003B0F0BD002CD0
:100730000CD01A7B944209D81A6863001B19033B3A
:10074000D3189B78002BEBD00123E9E73E4B3F4ABF
:1007500069213F4800F0CEFD3E4B3F4A65213F48AE
:1007600000F0C8FD03689C7B002CDBD012D01A7B04
:1007700094420FD862001219033A19688C466244F9
:1007800051789973002900D1D97300239370537065
:100790001370C7E72C4B2D4A69212D4800F0AAFDA4
:1007A000002C3AD02B681B7B9C4236D82C4BE3188C
:1007B0001B01AA6894466344009A1A60019A5A6021
:1007C000089A9A60099ADA602E68002C2BD030D0F3
:1007D000337B9C422DD863001B19033B326894463F
:1007E000634400229A705A701A70717B22003000A4
:1007F000FFF766FF7073844200D095E7287D009A6A
:10080000019B00F08DFA061E01D0002F17D00C9B23
:10081000002B00D188E71E7086E7124B124A3B215D
:100820000E4800F067FD114B114AA621084800F060
:1008300061FD054B054A6921054800F05BFD28680C
:10084000210000F0B9FCE2E7986B0010D86D0010B1
:10085000B46B0010386C0010E46D0010206B0010B9
:10086000FFFFFF0F646B0010846D00101C6B001005
:10087000C86D0010F0B5DE4657464E464546E0B519
:100880008BB00990002308938200B24BD6583700F2
:1008900032E0B14BB14A3F21B14800F02BFDB14BE2
:1008A000B14A3B21B14800F025FDB14BB14A8C2142
:1008B000AE4800F01FFDB04BAE4A9021AB4800F0AF
:1008C00019FDA84BAD4A4021A84800F013FD2A6845
:1008D0006B68099800F024FA00239A4698467B68D2
:1008E000BFF35F8F00221A6086F310884346002B07
:1008F00051D1002800D126E100F0BEF902000B1E04
:10090000C7DB00200021069007917868EFF310867E
:1009100072B601680029FCD0BFF35F8F3968884642
:100920004C7B002C32D0BAD0097B8C42B7D894498A
:1009300065182D01B9688C46654428686968801A75
:1009400099410029C3DC01D10028C0D100214046D3
:1009500000F028FCA042A8D12A686B680692079391
:10096000AB689846EB689A464346002BA3D0002C10
:10097000A7D03B681B7B9C42A3D8631EFA68D35C5C
:1009800008931B02184338610020A8E700239A4609
:1009900098460020A3E7089B1B0223439946514633
:1009A0001800C04705000E007A68EFF3108B72B68E
:1009B000136859424B41D9B2002BF9D1BFF35F8F75
:1009C000002E26DB002E52DD3B69002B53D04B4519
:1009D00072D100F051F902000B1E73DB0100180008
:1009E00052197341984202D804D1914202D901228E
:1009F0005242D317002B6BDB00210491013103918C
:100A0000029451460191414600913800FFF778FE6B
:100A100049E03B69002BD5D04B451CD1069A079B7A
:100A200010001900521BB341994202D804D19042E0
:100A300002D901225242D317002B12DB002104916C
:100A400001310391029451460191414600913800D1
:100A5000FFF756FE27E04B4B464A9F21434800F0E4
:100A600049FC3D4B3D4A3F213D4800F043FC002EF0
:100A700001D1002DA8D13A68002C45D0537B9C426F
:100A80002CD1012100293FD1D37B002B42D1D4733B
:100A9000002C52D03B681B7B9C424ED8FA68013C2C
:100AA000135D0133135500233B617A68BFF35F8FF9
:100AB00013608BF310881FE7324B2E4AA2212B487C
:100AC00000F018FC244B254A3F21254800F012FC79
:100AD000214B224A3F21224800F00CFC002C0DD073
:100AE000137B9C420AD863001B19033B10688446A1
:100AF00063449B78002BC5D00121C3E7224B234AD6
:100B00006921234800F0F6FB224B234AF7212048B5
:100B100000F0F0FB002B0AD0117B8B4207D8590064
:100B2000CB18033B11688C4663445C70AFE7164BEF
:100B3000164A6921164800F0DDFB0A4B0F4A402196
:100B40000A4800F0D7FB0BB0F0BCBB46B246A94642
:100B5000A046F0BD340E0020606C0010506D0010F7
:100B60007C6C0010646B0010846D0010206B001012
:100B7000CC6C0010686D0010E46C0010906D0010DB
:100B8000FFFFFF0FF06C0010986B0010D86D001085
:100B9000B46B00102C6D0010A46D001010B50A4B42
:100BA0005B68002B04D00A21084800F04DF910BD05
:100BB000054C2300064A1021206800F013FA032197
:100BC0002000FFF7CDFCEEE7B40100204810002024
:100BD000A105001070B5EFF305833F2018401038D1
:100BE000EFF3108C72B6194B1B68002BFBD0BFF3D0
:100BF0005F8F012319008140154A5163154A12780D
:100C00001400C440234214D0114B5C6A8300124D7F
:100C10005B599C4206D38300104C1B598A430D49F3
:100C20000A7007E00A4A031D9B0099589950002357
:100C300000E00023BFF35F8F044A002111608CF3B2
:100C40001088002B00D0984770BDC046280100D006
:100C500000400540661000204C100020AC0D002024
:100C600010B50100024A0348FFF7B6FB10BDC046AD
:100C7000FC6D001064100020044B5B6A034A906A0C
:100C80001900536A9942F9D17047C04600400540A7
:100C900070B504000D00EFF3108672B61B4B1B6895
:100CA000002BFBD0BFF35F8F002D1CD0200000F085
:100CB0004DFD174B83420BD01900200000F04EFD74
:100CC0000121200000F03AFD0123A340114A1360E6
:100CD000A400114BE550BFF35F8F0C4B00221A604C
:100CE00086F3108870BDA2000B4B0021D150012269
:100CF000A2400A490B7893430B700549200000F08D
:100D000057FD0021200000F019FDE4E7280100D084
:100D1000D50B001038600540AC0D00206610002097
:100D2000F0B5DE4600B584B00400150001921E0047
:100D30000293FFF7A1FF03958E4202D84ED1854260
:100D40004CD9EFF3108B72B6274B1B68002BFBD0EE
:100D5000BFF35F8F254A17780125A540EBB23B43CF
:100D60001370234B5D63221D92000199D150A200A4
:100D70002049029850501B6A2B4212D11C4B1B6C0D
:100D80002B4208D00020BFF35F8F174B00221A6060
:100D90008BF3108823E0184B184AC121184800F043
:100DA000A9FAFFF769FF8E4214D802D1039B834250
:100DB00010D80E4B1B78BB420ED00D4B1D625D63ED
:100DC0001F2004400123A3400E4A1360074B1F70ED
:100DD0001E38D8E70020D6E70120D4E7012004B070
:100DE00080BCBB46F0BDC046280100D06610002084
:100DF000004005404C100020206E0010906E001046
:100E0000446E001080E200E0EFF3108C72B60B4BE2
:100E10001B68002BFBD0BFF35F8F01238340084A80
:100E2000136208490A789A430A70BFF35F8F034B35
:100E300000221A608CF310887047C046280100D049
:100E40000040054066100020024B9C46614489002A
:100E5000016070474000003410B50400FFF7F0FA5D
:100E600001002000FFF7F0FFFF232371BFF35F8F26
:100E700010BD10B50400FFF7E3FA01002000FFF7F2
:100E8000E3FFFF23237100236371BFF35F8F10BD66
:100E900010B500291ED0037B99421BD84B005B186C
:100EA000033B0468A4466344002919D0002A1DD0DE
:100EB000914221D0002A25D0047BA24222D8046886
:100EC00050008018033820188170197800291FD12C
:100ED0001A7010BD104B114A6921114800F00AFA2E
:100EE000104B114A70310E4800F004FA0F4B0E4AB5
:100EF00071210B4800F0FEF90D4B0B4A7221084896
:100F000000F0F8F9044B054A6921054800F0F2F9B0
:100F100041701A70DDE7C046986B001050700010E9
:100F2000B46B0010086C00103C700010146C0010C2
:100F3000206C001070B506000D001400002914D0BC
:100F4000002A14D0806873689847002806D02200D1
:100F500029003000FFF79CFF280007E02A0021004D
:100F60003000FFF795FF200000E0100070BD080082
:100F7000FCE7000010B50023437301338373037B48
:100F8000C3730123027B9A4214D9002B0CD0027B3D
:100F9000934209D85A00D218033A01688C46624439
:100FA0000133DBB25370EDE70B4B0C4A69210C485F
:100FB00000F0A0F9002A09D0924207D80168530036
:100FC0009A18033A8A180023537010BD024B034A43
:100FD0006921034800F08EF9986B001050700010E2
:100FE000B46B001010B5017342608360FFF7C2FF5D
:100FF00010BD000070B50400081E00D170BD0029AE
:1010000034D0237B994231D84B005B18033B2268D4
:10101000944663445A78002AF0D02DD0237B9A421C
:101020002AD853009B18033B21688C4663445D78A3
:1010300000215970002825D0237B984222D84300F4
:101040001B18033B21688C46634400215970010042
:101050002000FFF76FFF060029002000FFF7CAFFFE
:10106000020031002000FFF765FFC7E7084B094A7F
:101070006921094800F03EF9054B064A69210648F6
:1010800000F038F9024B034A6921034800F032F9B5
:10109000986B001050700010B46B001070B5050014
:1010A0000C001600002928D02DD0037B99422AD8A5
:1010B0004B005B18033B0268944663445A78002A4D
:1010C00027D19A78002A2AD11978FFF793FF0300D5
:1010D000002E03D0EA7B002A27D1EC73002B37D1F6
:1010E000002C49D02B7B9C4246D82B6861000C1900
:1010F000033C1C190023637070BD224B224A382127
:10110000224800F0F7F8224B224A6921224800F0D9
:10111000F1F8224B1C4A3A211C4800F0EBF8204B16
:10112000194A3B21194800F0E5F8002A0AD0297B2A
:101130008A4207D851008A18033A29688C466244CB
:101140005470CAE7124B134A6921134800F0D2F8D1
:10115000002B0BD02A7B934208D843001B18033B7B
:101160002A689446634400229A70B9E7084B094AFA
:101170006921094800F0BEF8054B064A6921064876
:1011800000F0B8F8506F001028700010586F001071
:10119000986B001050700010B46B00109C6F001022
:1011A000C46F001070B504000A00457B2900FFF7EA
:1011B00075FF6073280070BD70B50400002967D00A
:1011C000437B8B420ED0002911D0037B99420ED86D
:1011D0004B005B18033B0268D0188378002B0CD1BE
:1011E000002056E00121FFF7DDFF012051E0294BEF
:1011F000294A6921294800F07DF8002B20D0227B64
:1012000093421DD85A00D318033B2268D218256890
:10121000EB5C8B421AD0002B1BD0227B934218D858
:101220005A00D318033B2268D21853788B4216D049
:10123000002BF0D11A4B1B4A67211B4800F05AF8CB
:10124000144B154A6921154800F054F8437813707F
:1012500007E0104B104A6921104800F04BF8437822
:10126000537000238370437001222000FFF716FFA4
:101270000200617B814205D02000FFF75BFE6073B6
:10128000012006E0094B074A6D21074800F032F8BB
:10129000002070BD986B001050700010B46B0010EF
:1012A000E86F001010700010586F0010F06F001001
:1012B00000BEFDE703000A4A1268002A08D0084A67
:1012C0001068C318074A9A4206D3054A136070474C
:1012D000034A05491160F2E701204042F7E7C046A2
:1012E000300E0020000004206810002010B5FFF729
:1012F000DFFF000010B582B00C001900002A0CD0EE
:10130000084B002A0BD001920093230002000648EC
:1013100002F098FD0120FFF7CBFF044BF1E7034AF1
:10132000F1E7C0465C7000106C700010687000102F
:1013300070B52B4B2B4A1A602B4B2C4A1A602C4B46
:101340009A682A4B9343FAD12A4C01E008CC98477B
:10135000294B9C42FAD300F001F9234B274A1A602B
:10136000234B9B68DB43DB01FAD1254B40229A6774
:101370005A671A67DA66234C09E0234B234A832114
:101380002348FFF7B7FF2000FFF766FD0834214B25
:101390009C4209D22368002BF5D0012BEDD120000F
:1013A000FFF767FD0834F2E71B4CA1681B4DC02214
:1013B000280002F0FDFBA560FEF755FF002800D0D5
:1013C00000BEFFF72DF800F041FBFFF7E7FB144CE0
:1013D00001E008CC9847134B9C42FAD370BDC0463D
:1013E00000E00040BFCDFBFE00F00040FE7F3C006F
:1013F00000C00040B00A0020C00A0020FFFFFF012B
:1014000000F00140A80A00209C7000101C71001020
:10141000BC700010B00A002000ED00E000000020C9
:10142000C00A0020C40A00200FB400B583B00848E9
:1014300002F0D6FC049B002B07D005A901911800EF
:1014400002F0DEFC034802F0CBFC0120FFF730FF86
:101450000871001018710010F8B5DE4657464E4668
:101460004546E0B505000F0092460A9A93424ED3D6
:101470001A0E91461E020A9A00233000494601F0D6
:10148000D9FC80466C006419A4002F4B9C46644430
:101490006368834200D260602B1FDBB29B46012B46
:1014A0003BD9C0239B012343802212011A60AB0069
:1014B000264A9958002905D0506901F079FC01307D
:1014C0000138FDD153465A0123685A40E0231A409F
:1014D00080235B0123431A605A46012A28D98023BE
:1014E0009B012343802212011A60434663604246F7
:1014F00000233000494601F09DFCAD00134B5851CC
:101500000120F0BCBB46B246A946A046F8BD104B30
:10151000104A2D211048FFF7EDFE012FC1D1C02345
:101520009B01234303221A60A368DB07FCD5C9E7AC
:101530002168794003220A401A60A2680123BB4057
:101540001342FAD0CBE7C04600800040BC0D00201B
:101550002C710010907100104071001030B583B0F4
:101560000C2000F00DFBFEF751FF00280DD00023EA
:1015700004E099002D4A2E4888500133092BF8D9F0
:101580002A4B2C4A5A6203B030BD2B4B00229A677B
:1015900000F0FEFA294B01221A60274B5B6C012BED
:1015A000FBD1274B03221A60234B9B6B012BFBD1F2
:1015B000022400940533234A0121234800F054FA01
:1015C00000940523214A0121214800F04DFA214BC6
:1015D0000093002202210420FFF73EFF1E4D0095DC
:1015E0002B00002201210520FFF736FF104C00944C
:1015F0002300002200210720FFF72EFF0094230084
:10160000002200210820FFF727FF0A4B0093230048
:10161000002200210920FFF71FFF00952B00002268
:1016200000210620FFF718FFADE7C046BC0D0020E3
:10163000006CDC021BB70000008000403CB00040A2
:1016400030B00040002F68590080024000389C1CD8
:1016500000C00240001BB700405973078000014BD7
:10166000C0587047BC0D0020074B9B6810308000AD
:101670001950BFF35F8FBFF35F8F044B00211960D8
:1016800082F310887047C04600ED00E0240100D0CE
:1016900010B5091A04394808090B05D14005400D59
:1016A000044B184380B210BD034B044A8B210448FD
:1016B000FFF720FE00E0FFFFA0710010B4730010E0
:1016C000B071001010B5091A04394C08090B08D183
:1016D0004905490D064A11430180064B23434380C7
:1016E00010BD054B054A93210548FFF703FEC04690
:1016F00000F0FFFF00F8FFFFA071001088730010DA
:10170000B071001001238340034A10681840431E43
:101710009841C0B27047C04600E100E0002904D003
:10172000034B1860034B18607047034B1860FBE7CE
:1017300080E200E000E100E080E100E010B501237C
:1017400083401800FFF7EAFF10BD0000024B9B68C2
:1017500010308000C058704700ED00E070B5040004
:101760000D00EFF3108672B60C4B1B68002BFBD0FC
:10177000BFF35F8F2000FFF7E9FF094B984201D0CC
:10178000A84205D1320029002000FFF76DFF70BD8F
:10179000044B054A6E210548FFF7ACFD240100D03B
:1017A000CD010010F8710010D0730010B07100105E
:1017B000F0B5CE46474680B583B006000D00EFF386
:1017C000108872B6574B1B68002BFBD0BFF35F8F9E
:1017D000554B9A6834001034A300D758534B9F429E
:1017E00007D0AF4200D19BE00197514BFB1A2F2B42
:1017F00009D9424639003000FFF736FF03B0C0BCBC
:10180000B946B046F0BD3000FFF77CFF81460021AD
:101810003000FFF793FFBFF35F8FFEF724FD002832
:1018200001D0844219D10123019C9C4341492300EA
:101830003F4A9B1A5B415943090D49B20022A368F4
:10184000AB4212D00622A256002A0DDB53009B1891
:101850009B002200364CE418F1E71E21364B374A34
:10186000FF313748FFF746FD2200AB4251D1062534
:101870006557002D39DB6B005B199A002C4B9B18C8
:101880009A68A260DA79E27106229A56A2719B796F
:101890005BB2002B10DABD200002A0806B005B1948
:1018A0009B00234AD318274A11789971157049462D
:1018B0003000FFF743FF9CE7201D6B005B199B0086
:1018C0001B4A9B181A1D9B88D90A1C2907D15B0546
:1018D0005B15023359005118FFF7DAFEDDE71A4BAA
:1018E0001A4A99211648FFF705FD00280CD1002A55
:1018F00008D0FF239371164B9380124B1A78A27174
:101900001970D4E7094FF8E7201D1249FFF7DAFEF6
:10191000CDE7A921104B094A49000948FFF7EAFC25
:10192000024F66E7240100D000ED00E0CD01001079
:10193000DC010020AAAA00000C730010A0730010A4
:10194000B071001065100020F4720010C073001018
:1019500000BDFFFF160200203073001070B50400B8
:10196000012606432D4BF31A2F2B28D8FEF77BFCBC
:1019700000282BD0EFF3108C72B6294B1B68002B7C
:10198000FBD0BFF35F8F274D22002449521A5241EA
:1019900055432D0D6DB2244B9B6880001B58B342FC
:1019A0001BD00022032A32D853009B189B001B49EE
:1019B000CB189B795BB2AB421FD00132F2E77821A2
:1019C0001A4B1B4AFF311B48FFF794FCBD211A4BF1
:1019D000174A49001748FFF78DFC134B9B68174ABD
:1019E0001A50174B1A78A2711D70BFF35F8F0C4B02
:1019F00000221A608CF3108870BD080053009918FB
:101A000089004118FF268E710E4A8A80E9E78C21F1
:101A10000D4B074AFF310748FFF76CFCDC01002043
:101A2000240100D0AAAA000000ED00E038730010E5
:101A30006C730010B071001060730010CD010010C5
:101A40006510002000BDFFFFE86F00100022044B6E
:101A500002E0044902C30132072AFAD97047C0469E
:101A600000E400E080808080F0B5CE4600B5040040
:101A70000E0091461F000C2001F09AF90500430169
:101A80001B1A9901C91AC90009188901484601F0B1
:101A90008FF90200103A98235B009A4233D87B1EDC
:101AA000062B36D8069B013B062B32D8069B9F425D
:101AB00035D34B461A09AA4237D33F04069B1D0370
:101AC0002F432368002B36DB234B9C4241D08022DE
:101AD0005201224B1A60224B1A60224B9B68110064
:101AE0009943FAD12660A060231DC02292011A43B7
:101AF000212313602368002BFCDAE76008231360BE
:101B000080BCB946F0BD184B184A16211848FFF79B
:101B1000F1FB184B154A19211548FFF7EBFB164B43
:101B2000124A1F211248FFF7E5FB144B0F4A2221EE
:101B30000F48FFF7DFFB22683F231340B342C3D1B6
:101B4000A3681B051B0D8342BED1E368002FBBD1E8
:101B5000D6E780229201BCE700C0024000E00040CE
:101B600000F0004000C00040EC730010D074001082
:101B700008740010507400109C740010B4740010AD
:101B800080239B000343014AD362704700800540D5
:101B9000064BAA2212011A602F22DA60044B054A72
:101BA0001A60024B5B68002BFBDA70470040024072
:101BB0000060024000B0FA00704710B5002802D063
:101BC0000B684968984710BD0100002007E08300BA
:101BD0001B185B00501C08601078C01830380A6869
:101BE0001378303BDBB2092BF1D97047F0B5DE46F4
:101BF00057464E464546E0B583B093461F000C9BC2
:101C00009A460D9C0E9B99460F9B9B0703D0B846A6
:101C10000F00060022E00192A34688464E46B946D0
:101C20000700B44207D2551C4B4641462020B84716
:101C300001342A00F5E73D004F465C46019B9B4678
:101C4000B1464646B84637002E0007E0013C551C19
:101C50005346185D43463900B0472A00002CF5D1A1
:101C600035003E0047460F9B9B0707D4100003B08A
:101C7000F0BCBB46B246A946A046F0BDB0464E46B3
:101C8000B9462F005D46531BB342EFD2541C4B465E
:101C900041462020B8472200F5E7F0B5CE4647463A
:101CA00080B585B0944698460C9D0D9C0EAB1B7874
:101CB0009946109A119B129EB7071CD4002B0CD08A
:101CC000F7070AD54F46002F02D10C37374204D010
:101CD000013B02E030272F550134944201D21F2CE2
:101CE000F8D9F70707D59C4205D21F2C03D8302717
:101CF0002F550134F5E7F70615D5770505D4002CE7
:101D000003D0944224D09C4222D00F9A102A2BD088
:101D10000F9A102A30D00F9A022A35D01F2C02D8E1
:101D200030222A5501341F2C05D84A46002A31D0CA
:101D30002D222A55013403960293019400954346BF
:101D40006246FFF753FF05B0C0BCB946B046F0BDD0
:101D5000621E012C06D00F9F102F01D01400D4E773
:101D6000023CD2E71400D0E7B206D1D41F2CCFD862
:101D700078222A550134D1E7B206CCD51F2CCAD817
:101D800058222A550134C9E71F2CC7D860322A557A
:101D90000134C3E7720703D52B222A550134CAE761
:101DA0003207C8D520222A550134C4E7F0B5DE46F3
:101DB00057464E464546E0B593B081468A4608925E
:101DC00009931CAB10CB1B789B461E9D219B98460C
:101DD000002C03D1102342469A4390468023DB0017
:101DE00046461E4042461A4212D0002C22D00026FF
:101DF0000EE03033D9B2771C0AAB99552900200088
:101E000000F0D6FFAC4216D31F2F14D83E000400BA
:101E10002900200000F0CCFFCBB2092BE9D94246C3
:101E2000920605D54121C918C9B20A39C9B2E2E7FB
:101E30006121F8E7270043460693209B05931F9BEB
:101E4000049303955B46029301970AAB0093099BA9
:101E5000089A51464846FFF720FF13B0F0BCBB4636
:101E6000B246A946A046F0BDF0B5DE4657464E46FE
:101E70004546E0B595B0089009910A920B931E9ED5
:101E80001F9C20AB1B789B46229B9946239D269B3B
:101E90009A463300234303D1103352469A43924665
:101EA0008023DB0057461F4052461A4219D03300A8
:101EB00023432DD0002714E03033DAB27B1C984640
:101EC0000CABDA554A462B003000210000F0B2FF7F
:101ED000A5421FD819D043461F2B1BD847460600E2
:101EE0000C004A462B003000210000F0A3FFD3B2C3
:101EF000092BE1D95246920605D54122D218D2B219
:101F00000A3AD2B2DAE76122F8E7B145E3D901E053
:101F10000023984653460693259B0593249B0493E0
:101F20004B4603935B460293434601930CAB0093ED
:101F30000B9B0A9A09990898FFF7AFFE15B0F0BC01
:101F4000BB46B246A946A046F0BD0000F0B5DE464D
:101F500057464E464546E0B591B083468A460C92B8
:101F600098461A9C08941B9D099522002B0020007E
:101F7000290001F0EEF9002800D0E5E001225242EC
:101F8000D74B2000290001F0DFF9002800D0DBE06A
:101F900001225242D34B2000290001F0BFF9002852
:101FA00000D0D1E000220023089E3000099D2900C6
:101FB00001F0B4F9002800D0DDE0089809990690F6
:101FC00007918023DB001E9A1A400D921E9A1A4236
:101FD00001D106231C930698079904000D000A00FE
:101FE0000600024300D1D1E0080D4005400DBE4C73
:101FF000A44660440A03120BBC4B13431F0001F0BC
:10200000BBF9BB4ABB4B01F046F9BB4ABB4B01F0E5
:102010001BF904000D000022B94B3000390001F01B
:102020000AF9B84AB84B01F036F902000B0020005B
:10203000290001F009F901F0B7F9814601F09CF996
:1020400004000D00B14AB24B01F025F90022B14B5A
:1020500001F0FAF801F0A8F90600AF4AAF4B2000F2
:10206000290001F018F904000D00300001F084F996
:10207000AB4AAC4B01F00FF902000B002000290025
:1020800001F0D9F804000D0002000B0001F003F983
:102090000A900B91A44BF31800261F0522002B0079
:1020A0002000290001F0D0F80E900F9122002B00A3
:1020B00000208021C90501F0BEF804000D000022B7
:1020C0009A4B0A980B9901F0C8F80022984B01F03E
:1020D000BBF802000B000A980B9901F0BEF8002231
:1020E000944B01F0B1F802000B000A980B9901F033
:1020F000B4F802000B002000290001F0A5F802004E
:102100000B000E980F9901F0A8F80022774B01F010
:102110009BF832003B0001F0BEF806000F000400FF
:102120000D00069A079B01F00FF9002830D001231B
:102130005B429C46E14400227D4B3000390001F0B7
:102140008CF804000D0023E01E9B04931D9B039359
:102150001C9B0293089A099B0092019343460C9A98
:102160005146584600F0FCF811B0F0BCBB46B246F0
:10217000A946A046F0BD00230024069307940696C6
:1021800080231B069C46654407951AE70023994661
:102190004B466333C62B1ED804261E9B1B0526D533
:1021A0002B0023430FD0644A644B0698079901F033
:1021B000C3F8002879D00022614B0698079901F0F6
:1021C000ADF8002871D01C9B4B4506DD4A46981A95
:1021D000431E1C9303E00526DFE700231C938023A6
:1021E000DB001E9A1A431E920026002399461D9B6F
:1021F0009E4264D29F1B02231E9A1A400A921E9A84
:10220000134202D0002E00D000274B46002B07D0EF
:1022100022002B000698079901F01FF806900791FD
:10222000002200230898099901F078F8002848D185
:10223000444B1E9A1340049303971C9B0293069BE6
:10224000079C0093019443460C9A5146584600F06F
:1022500087F8002E00D187E71E9B9B063DD54525BC
:10226000441C4346020051462800D8474B46DA1723
:102270009B18534005220592013E049600220392CA
:102280000A3202924A46D00F019000934346220040
:1022900051465846FFF78AFD0A9B002B00D163E7A1
:1022A00002005F460C9E1D9D54E01C9B002B9ED09F
:1022B0000D9B002B9BD01C9B013B1C9397E7002799
:1022C00099E7069C079D220029008020000684468D
:1022D00061440B0006920793AAE76525C0E7C04654
:1022E000FFFFEF7FFFFFEFFF01FCFFFF0000F03F6C
:1022F000FB799F501344D33FB3C8608B288AC63FF5
:102300000000F83F61436F63A787D23F71A379094B
:102310004F930A400000E03F1655B5BBB16B024039
:10232000EF39FAFE422EE63FFF03000000002C408A
:1023300000002440000018402D431CEBE2361A3FF9
:1023400080842E41FFF7FFFF541C43465146202056
:10235000B8472200931BAB42F6D3100004E7C046F7
:10236000F0B5DE4657464E464546E0B595B0069078
:10237000079193469946209F1E9A1F9B10001900B3
:1023800000F0E7FF002831D101225242BF4B1E98D6
:102390001F9900F0C3FF002837D101225242BC4BE5
:1023A0001E981F9900F0D0FF00283DD10022B94BA4
:1023B0001E981F9900F0C8FF002850D10022B64B8C
:1023C0001E981F9900F0AAFF002848D10022002380
:1023D0001E981F9900F0A2FF002850D100239846B4
:1023E000229B5B0500D4B6E0002458E0229B0393B7
:1023F000219B029303230193A84B00934B465A461B
:1024000007990698FFF7F2FB0EE1229B0393219BAD
:10241000029304230193A24B00934B465A4607991B
:102420000698FFF7E3FBFFE00423229A1A40229963
:102430000B4210D09B4B002A0FD00422229903910B
:1024400021990291019200934B465A4607990698AA
:10245000FFF7CCFBE8E0944BEDE70322EEE7229B8D
:102460000493219B039302971E9B1F9C009301944E
:102470004B465A4607990698FFF768FDD4E01E9A26
:102480001F9B0020002100F0D6FE1E901F9101230B
:102490009846A5E70CAB30221A55013F01341F2C9A
:1024A00001D8092FF6D81E981F9900F07DFF05006E
:1024B00000F062FF02000B001E981F9900F0BBFEA7
:1024C000FA007A4B9B181A685B680A920B9300F02B
:1024D000E2FE0890099100F08BFF060000F048FF33
:1024E00002000B000898099900F0A5FE08900991D8
:1024F00000226F4B00F028FF00282ED0013630005C
:1025000000F036FF02000B000A980B9900F00CFF58
:10251000002801D001350026002F2CD1280000F022
:102520002BFF02000B001E981F9900F084FE06008E
:102530000F0000225E4B00F0F1FE002846D1002281
:102540005B4B3000390000F0FFFE00283ED1EB0766
:102550003CD501353AE0062746E70022544B08985F
:10256000099900F0DBFE0028D6D1002E01D0F30738
:10257000D2D50136D0E7AA461F2C11D8013F0A2137
:10258000300000F015FC651C30310CAB19550A21E8
:10259000300000F00DFC092E0ED906002C00EBE7F0
:1025A00055461F2C0CD87B1E002F09D00CAA3021B9
:1025B00011551F000134F4E72B0055461C00F0E7CD
:1025C0001F2C03D80CAB2E221A5501341F2C10D807
:1025D0000A21280000F0C4FB661C30310CAB1955F1
:1025E0000A21280000F0BCFB051E01D03400EDE7F5
:1025F00034000323229A1340012B1CD01F2C06D831
:102600004346002B32D00CAB2D221A550134229BAD
:102610000393219B029301940CAB00934B465A46C3
:1026200007990698FFF7E2FA15B0F0BCBB46B24630
:10263000A946A046F0BD219B002B13D04346002B9A
:1026400002D10C3313420FD0219B013B219319007F
:1026500003E00CAB30221A5501348C42CED21F2C31
:10266000F7D9CBE72199F8E72199F6E7229B5B0799
:1026700004D50CAB2B221A550134C8E7229B1B074B
:10268000C5D50CAB20221A550134C0E7FFFFEFFF80
:10269000FFFFEF7F65CDCD4165CDCDC1E874001062
:1026A000EC740010E0740010DC740010D876001098
:1026B0000000E03FF0B5DE4657464E464546E0B5E1
:1026C00093B082468B4690461193002900D1EBE2ED
:1026D00000275546119B1878002800D1E7E22528ED
:1026E00009D07C1C43463A005946A847119B013348
:1026F00011932700EEE7013311930024119A11780A
:102700000B00203BD8B2102803D88300D048C35810
:102710009F460B00303BDBB2092B2CD92A292FD046
:1027200000230A93119B1A782E2A39D000239A4647
:10273000119A1378683BD9B2122976D88B00C54913
:10274000CB589F4601231C4301321192D6E7022346
:102750001C4301321192D1E704231C430132119230
:10276000CCE708231C4301321192C7E710231C4316
:1027700001321192C2E711A8FFF726FA0A90D1E7B9
:102780001C9B1A1D1C921868002804DB0A90119BE0
:1027900001331193C6E702231C4343420A93F6E731
:1027A0008022D20014435A1C11925A781300303BF5
:1027B000DBB2092B04D92A2A07D000239A46B7E7AF
:1027C00011A8FFF701FA8246B2E71C9B1A1D1C9262
:1027D0001868002804DB8246119B01331193A7E798
:1027E0000020F8E780235B002343511C11915278AD
:1027F0006C2A01D01C0018E0C0239B001C4301314F
:10280000119112E080232343511C11915278682AC0
:1028100001D01C0009E0C0231C430131119104E0E8
:1028200080235B001C4301321192119B1878030036
:10283000253BDAB2532A00D92CE29300864AD358BA
:102840009F4680239B001C4301321192EDE78023B9
:102850005B001C4301321192E7E7782809D0582821
:1028600038D06F2838D0622838D010239C430A26ED
:1028700000E01026582833D0692803D0642801D0FE
:102880000C229443630501D50122944369282AD080
:10289000642828D0A30500D59FE0E30500D5B8E063
:1028A000630600D4CAE01C9A111D1C911168FF2216
:1028B0000A4005940A9B049353460393029600230F
:1028C0000193009243463A0059462800FFF76EFAFA
:1028D000070027E01026CDE70826CBE70226C9E748
:1028E00020221443C8E7A30520D4E30550D463068F
:1028F00066D51C9A111D1C911168FF220A40D3173E
:10290000D118594005940A9B0493534603930296A9
:10291000D20F0192009143463A0059462800FFF732
:1029200045FA0700119B01331193D3E61C9BDA1D76
:1029300007218A43110008311C91116853689C4695
:10294000DB170C930D930C9A0D9B100048400E90D2
:10295000624653400F930E980F990C9A0D9B801A64
:1029600099410E900F9108940A9B07935346069342
:102970000496002305936346DA0F029200900191BA
:1029800043463A0059462800FFF76EFA0700C9E7A8
:102990001C9A111D1C911268D317D1185940059427
:1029A0000A9B0493534603930296D20F019200911F
:1029B00043463A0059462800FFF7F8F90700B1E707
:1029C000230605D51C9A111D1C910023D25E96E7A3
:1029D0001C9A111D1C91126891E71C9BDA1D07219E
:1029E0008A43110008311C9108940A9B07935346AF
:1029F000069304960023059302931368546800938A
:102A0000019443463A0059462800FFF72DFA070083
:102A100088E71C9A111D1C9105940A9B0493534648
:102A200003930296002301931368009343463A00F0
:102A300059462800FFF7BAF9070073E723060DD5BA
:102A40001C9A111D1C9112681204120C31E7C04629
:102A5000F474001038750010847500101C9A111D54
:102A60001C91126825E746281AD01C9B07330722C1
:102A700093431A0008321C9204940A9A0392524615
:102A800002925C681B680093019443463A005946E1
:102A90002800FFF765FC0700119B0133119319E62D
:102AA00020231C43E1E7672801D0472802D1802377
:102AB0001B011C43452801D0472801D120231C437A
:102AC0001C9B0733072293431A0008321C9204947C
:102AD0000A9A0392524602925C681B680093019422
:102AE00043463A0059462800FFF730FA0700119B89
:102AF00001331193EEE502231A002240924623424D
:102B00001FD001241C9B1A1D1C927A1C9146187818
:102B100043463A005946A8475346002B16D1119B0D
:102B2000013311934F46D5E5561C434659462020A4
:102B3000B847230032005C1C9D42F5D83D001700C9
:102B4000E0E701233A002F000A9DF4E74A46A94630
:102B50000A9D06E0571C434659462020C8473400CA
:102B60003A00661CA542F5D84D469146D7E71C9B16
:102B70001A1D1C921B6899465346002B00D1013B3D
:102B80004E4601E0013613003278002A02D05A1E68
:102B9000002BF7D14B46F21A10928023DB0026005F
:102BA0001E401C4203D0524501D9534610930223C4
:102BB0001A0022400B92234205D03A0037004C46BF
:102BC000A946554620E03A00109B5F46B3462E00CA
:102BD00006E0551C434639002020B04723002A0058
:102BE0005C1C0A999942F4D835005E46BB461094A5
:102BF00037004C46A946554606E01D000134561CD8
:102C000043465946C84732002078002804D0002F98
:102C1000F4D06B1E002DF0D117004D460B9B002BFE
:102C200003D1119B0133119354E50A9F109B06E0D9
:102C3000561C434659462020A847230032005C1CFE
:102C40009F42F5D81700ECE721231C431C9B1A1D5B
:102C50001C921B6800930594082304935346039326
:102C6000102302930023019343463A00594628005B
:102C7000FFF79CF80700119B013311932AE57C1C98
:102C800043463A0059462520A847119B013311932A
:102C900027001FE57C1C43463A005946A847119B74
:102CA00001331193270015E50A4B9A4610E5AA4611
:102CB000474502D343465A1E00E03A004346594670
:102CC0000020D047380013B0F0BCBB46B246A9463E
:102CD000A046F0BDB91B001000B585B0029003916D
:102CE0000121009313004A4202A90248FFF7E2FCC7
:102CF00005B000BDBB1B001001480421014B184763
:102D000030020020292D001010B5010018231B8867
:102D100014221088984710BD10B5010018231B8895
:102D200016221088984710BDF0B5C64600B50700BA
:102D30000E0000250123984600E00135B5420AD275
:102D4000AC003C192068FFF7DFFF20600028F4D1B9
:102D500000239846F1E7404680BCB846F0BD00002D
:102D6000124A936F9B0815D29066D166002905D050
:102D7000FFE7FFE7FFE7516F106F704704B5802151
:102D80000906C2175140002800D0C84303F0A0FE36
:102D9000002104BDF0B5146E556E576F166FFFF726
:102DA000E3FF1466556657671667F0BD000000D054
:102DB000114A936F9B0813D210665166002905D003
:102DC000FFE7FFE7FFE7516F106F704704B500287A
:102DD00001D00020C04303F07BFE002104BDC046AB
:102DE000F0B5146E556E576F166FFFF7E5FF14665A
:102DF000556657671667F0BD000000D094464E4AEE
:102E0000926F9208624601D230E0C046F0B54A4E59
:102E1000B56F6D08FCD3346E756E776F366F00F04A
:102E200025F89446444A1466556657671667624605
:102E3000F0BDC0469446404A926F9208624601D265
:102E400058E0C046F0B53C4EB56F6D08FCD3346E0B
:102E5000756E776F366F00F04DF89446364A1466FB
:102E60005566576716676246F0BDC046002B24DBE7
:102E700011D000293EDA00B5C943404200D10131EA
:102E800000F038F8C943404200D10131DB435242DF
:102E900000D1013300BD002AEBD1002801D1002967
:102EA00005D00020C90FC90701D1C043410800B5B2
:102EB00003F006FE0022002300BD00B500290ADB56
:102EC000DB43524200D1013300F014F8C9434042C1
:102ED00000D1013100BDC943404200D10131DB4383
:102EE000524200D1013300F005F8DB43524200D1D9
:102EF000013300BD002923D1002B18D1002A0CD0AA
:102F0000BC460D4F38667A6600210023FFE7FFE7D5
:102F1000FFE77A6F386F67467047002801D007488F
:102F2000010000B503F0CCFD0022002300BD02002B
:102F30000B00002000217047000000D0FFFFFFFFC2
:102F4000002B00D0BFE0130C28D1002AE7D080B4BA
:102F5000114F39667A66FFE7FFE730B4040C7B6FE8
:102F6000396F1B0423433B667A66FFE7FFE7FFE701
:102F7000C04684B27B6F3D6F1B0423433B667A6679
:102F8000FFE7FFE7C04600232C042D0C7A6F386F53
:102F900000196941B0BC7047000000D0F0B59446FC
:102FA0000025140E01D112020835140F01D11201AF
:102FB0000435940F01D192000235D40F01D1520093
:102FC0000135D40B0134254F7C66254C3C660E0C34
:102FD00093B2FFE7FFE7FFE73C6F6643360C7703EA
:102FE000BE467343DF0B5B04C01AB941130C734335
:102FF000DB18C91ACE086643360CB64493B2734345
:103000001F0F1B01C01AB941130C73431F0B1B0583
:10301000C01AB941860D8F023E436643360C092D16
:1030200024DB520A7243801A7703460A6643360C41
:1030300016235B1BDE40DF40BF1964466643821BDC
:103040007046043506330100D940A840C01900D3AA
:103050000131A24206D20023F0BD0000000000D0E2
:10306000FFFFFFFF121B0130F3D3F1E709277F1B9E
:10307000FE406446A2B27243801A00D20139220C8B
:103080007243130C1204821A99410B0070460435E6
:1030900013370100F940A840801900D30131002BFB
:1030A00002D1A2420AD2F0BD013000D30131121B7D
:1030B000FAD2013BF8D1A24200D2F0BD013000D3D8
:1030C0000131121BF7E7F0B51C0C00D080E00CB406
:1030D00000251C0A04D11B02160E334312020835C8
:1030E0001C0B04D11B01160F3343120104359C0B3A
:1030F00004D19B00960F334392000235DC0B02D1C2
:1031000092185B4101351C00971864410134464F09
:103110007C66464C3C660E0CFFE7FFE7FFE7C046C7
:103120003C6F6643360C7703BE4697B27743C01BAD
:1031300000D20139C01B00D201399FB27743C91BAD
:10314000C91B170C77437E04FF0B801BB941CE08C7
:103150006643360C0C2D33DBB644120B1F053A4385
:103160001B0B97B27743C01B00D201399FB2774344
:10317000C91B170C77433E043F0C801BB941860DD9
:103180008F023E43664329277F1BFE400C3D774656
:10319000AF40BF1930BCA2B2ABB272437343801AC6
:1031A0009941220C7243130C1204801A99410200B7
:1031B0000B000137001BA941F9D2781E0021F0BD98
:1031C0000C277F1BFE4077467F0BAF40FF19E0E7DF
:1031D00000245D1C07D0144F7D663966FFE7FFE7CA
:1031E000FFE7FFE73C6F95B29EB265436643401B25
:1031F000B141150C1E0C6543664336042F0C3E434B
:103200002D04401BB141994204D202000B00200062
:103210000021F0BD01D19042F7D3801A99410134C9
:103220009942F2D3F6E70000000000D0FFFFFFFF55
:1032300048404140484018B41B4B5B68FC46019332
:1032400008BD04DF0B35001018B4174B1B68FC4693
:10325000019308BD00DF153500109446134A926FA4
:10326000920809D2624618B40F4BDB68FC46019302
:1032700008BD0CDFCD3700100C4AF0B5146E556E4A
:10328000576F166F6246FFF7EEFF084A14665566E1
:1032900057671667F0BD18B4034B9B68FC46019353
:1032A00008BD08DF71360010440E0020000000D079
:1032B000FFB550404240504059404B40594000E01B
:1032C000FFB5154F4C00640D03D0BC4204D10C0374
:1032D00014D80020090D09055C00640D03D0BC4220
:1032E00004D11C030AD800221B0D1B0501264B40EC
:1032F00009D44B4003D58B4200D18242FFBD994295
:10330000FCD19042FFBD0B43DB1803431343F5D0C0
:10331000C9434918FFBD0000FF07000000B5FFF7D3
:10332000CFFF804100BDC04600B5FFF7C9FF01D9FE
:10333000002000BD012000BD00B5FFF7B9FF01D995
:10334000002000BD012000BD00B5FFF7B1FF8041A6
:1033500000BD012040054A00121804D85A00121876
:1033600001D80020704701207047002070470000FE
:103370000021002805D17047C1174840401AFAD0F3
:10338000C90713B5064B1B6898470CBC441CA240E8
:103390001005120B0349091B09051943114310BD00
:1033A000440F00201F04000010B54C00620D802364
:1033B000D218DB00D21A5B057E2A10DD9E3A13DAA2
:1033C000CC170903490819435242D1406400013423
:1033D0001532202A05DAD0400843604310BD002092
:1033E00010BD0846604310BDC80FC018013810BD9D
:1033F00018B4044B5B6AFC46019308BD24DF7D3999
:1034000000100000440E002070B513231C78012C1E
:1034100014D0012C14DC022C02DC1F4A1F4B9A64CE
:103420001F48FFF771FC1F4B186070BD99001A48C8
:103430001A4A885001331F2BF8D9EAE70023FAE72C
:103440001948FFF769FC05001848FFF765FC0238CA
:1034500003789B007F2B19DD802229000F4800F0A4
:10346000A7FB022CD7D1124B1A88B5231B029A4214
:1034700009D1104B1A88104B9A4204D10F4B1A886D
:103480000F4B9A42C7D00020FDF7CEFF0D4B0E4ADE
:1034900032210E48FDF72EFFD1340010440E0020DB
:1034A0004C330000440F00205344000053460000FA
:1034B00054380000D8380000494600009C3800000D
:1034C0005946000028770010DC770010887700103C
:1034D00007B56046002800D100BE01880A0A023004
:1034E000DF2AFAD1C9B2820804D3028840880004D6
:1034F000104300E00068024A5050039007BD0000EE
:10350000440E00200FB403BC0CBCF0B50124E4074A
:10351000634000E0F0B50C0DCF0F661E3605891B29
:10352000640503D3C943404200D30131640D03D085
:10353000661CF60A07D0E41B00207F00791C89076F
:103540008912803C24031D0DDF0F6E1E36059B1B68
:103550006D0503D3DB43524200D301336D0D03D01D
:103560006E1CF60A07D0ED1B00227F007B1C9B0718
:103570009B12803D2D032F1B661B58D4A446202E82
:1035800046DA20371400BC401D00BD40F2403341F4
:103590002A4380185941CB0F05D0C943C0430022AC
:1035A00064425041514162464D0D28D10D0D07D165
:1035B00000281FD0241940414941013A0D0DF9D08E
:1035C000640006D3013000D30131002C01D1400842
:1035D0004000013A0BD4941CE40A04D112051144B2
:1035E000DB071944F0BDD907204B194300E0D90788
:1035F0000020F0BD0029DDD1002CDBD1F0BD01326F
:10360000C6074008CD0728434908002EE1D0D9E776
:103610003C2E29DA203E40371400BC4000D0012463
:10362000F24014431A00BB401C43D317ACE7AC462E
:10363000202F08DA20360400B4400D00B540F840D1
:1036400039412843A5E73C2F0CDA203F40360400DF
:10365000B44000D00124F84004430800B1400C43BA
:10366000C117EAE710001900002494E70000F07F7A
:10367000F0B50C0D661E3605891BE60A6405640D5F
:1036800002D0651CED0A04D0002001210905803C10
:103690002403A4461C0D671E3F05DB1BE70A6405D7
:1036A000640D02D0651CED0A04D0002201231B0525
:1036B000803C24037740644497B484B296B2744348
:1036C000070C7E43150C6F4380B26843361802D353
:1036D000012000043F183004350C00197D41844658
:1036E00088B29AB250430C0C62431F0C7C438EB2DA
:1036F0007E43921902D301263604A4191604170C2E
:103700003618674101BC81B29AB25143040C62433E
:103710001B0C5C4380B25843121802D301200004F2
:1037200024181004130C401863412D185E4100202A
:10373000474106BC88B293B258430C0C6343120C49
:10374000544389B251435B1802D301210904641820
:1037500019041A0C091862416D185641002047419E
:1037600018BCF902720D1143F0026A0D1043ED020C
:103770000A0D03D16D1940414941013B124E9B1B7B
:103780007600B3420ED26D0007D30130002671419E
:103790006646354301D1400840001B05C918E407BF
:1037A0002144F0BD0BDA013306D1013004D10131DF
:1037B0004F0D01D04908F2E7E1070020F0BD0136C6
:1037C00031050020EBE70000FF030000F0B51C0D01
:1037D000671E3F05DB1BE70A6405640D02D0661C0B
:1037E000F60A04D0002201231B05803C2403D025C7
:1037F0002D060026F6432E661E096E66CE0FF619BC
:10380000B44649004F0D02D07E1CF60A03D00020BA
:103810000021403F3F033E1BB600B444013F7F05FB
:10382000C91B49082E6F013676089C02950D254369
:103830007543ED137543AD1301356D10F603761B1B
:103840000CB4CC02450D2C43A2B2B3B25A43270CA0
:103850007B43350C6F43A4B26C431B1902D3012484
:1038600024043F191C041D0CA4187D4124196D412A
:10387000009A91B2ACB26143170C7C432B0C5F43AE
:1038800092B25A43A41802D301221204BF18220490
:10389000230C52187B41019C6C431B19520ED90119
:1038A0000A434401A01A81B2B2B2514303145A43ED
:1038B000360C734387B27743D617D21900277E415F
:1038C00036049B191704160C7F185E417316ED1809
:1038D000F301002680337541A90F06D16400690AFF
:1038E000E8055B0A184309D22FE004229444803390
:1038F0007541A90AA8059B0A184326D340414941AE
:103900002404009A019B0D005543641B4343E41AB1
:1039100095B286B27543170C7E43030C5F4392B297
:103920005A43B61802D301221204BF183204330CD2
:1039300052197B4152429C41002C02D4002201309A
:1039400051414008CA071043490802B06246D707F0
:103950009210084BD218084B9A4203D212058918CC
:10396000C919F0BD0020002A01DC3900F0BD013387
:103970001905F5E7FD030000FE070000002200B571
:10398000203200F004F8080000BD000000220B15F2
:103990000AD410B5944600F031F81414013400DA5A
:1039A0000021CB17144C20470020002170476244AF
:1039B000343A0CD40C2A07DA040091409040524269
:1039C0002032D440214310BDD843D94310BD20320A
:1039D00007D40C469440524220321141D04020433B
:1039E00010BD0800C917203203D4524220321041C2
:1039F00010BD1800190010BDAF3900100A0DCC0F12
:103A0000531E1B05C91A520503D3C943404200D3B4
:103A10000131520D03D0531CDB0A07D0121B0020CA
:103A20006400611C89078912803A1203014BD21A83
:103A300070470000FF03000070B513231D782A486B
:103A4000FFF76AF90400012D11D0012D09DDA31E35
:103A50001B789B007F2B40DD80222100234800F053
:103A6000A7F82348FFF750F9224B186070BD542285
:103A700001001E4800F09CF81F4B1A881F4B9A4209
:103A80001CD1A7239B011A881D4B9A4216D11D4BAE
:103A90001A881D4B9A4211D11C4B1A8894239B0102
:103AA0009A420BD11A4B1A881A4B9A4206D11A4BDA
:103AB0001A681A4B9A4201D1152307E01848FDF7FE
:103AC000B3FC99001748094A885001331F2BF8D9D5
:103AD000144A064B1A62DA61B7E7134B134A4221C4
:103AE0001348FDF707FCC04653460000480F00206E
:103AF0004C330000440F0020EE290000C40F0000EA
:103B0000C20D0000962B0000C0B50000182B00006D
:103B1000CC2A000010B50000FC2C000051ED876499
:103B200068700010353B0010F077001074780010BA
:103B30002478001007B56046002800D100BE018837
:103B40000A0A0230DF2AFAD1C9B2820804D30288F5
:103B500040880004104300E00068024A505003907F
:103B600007BD0000480F002010B5040002F042FB22
:103B7000002804D00419034B9C4200D810BD024811
:103B8000FDF752FC000004208878001010B502F008
:103B90003BFB10BD01480421014B184740020020A7
:103BA000292D0010014B1B6818470000400200201F
:103BB000014B5B68184700004002002010B503006D
:103BC000080011001B68984710BD0000F8B50700F9
:103BD0000D001600437C002B02D0002400200CE0D6
:103BE00003681100280098472DE03B7C10E002217B
:103BF00015483B689847601C0134B44214DA002C25
:103C0000F3DD2B19013B1B780D3B5A425341DBB2CC
:103C10002A5D0A2AF0D1002BEED1A042E7DA211A60
:103C200028183B689847E2E7B04203DA311A2818AF
:103C30003B689847002E06DDAD19013D2B780D3B02
:103C40005A4253413B74F8BDF878001070B5050036
:103C50000368002B16D00C4B1C6805E0290004C932
:103C60002000FFF7B3FFE468002C09D02368002B85
:103C7000F9D0064B1B68002BF0D0A342F3D1EDE73F
:103C800000232B6070BDC046240E00202C0E0020A7
:103C900070B505000C000B68802B05D021684B1C0B
:103CA00023606418257170BD0800FFF7CFFFF5E7AA
:103CB00010B582B0D0231B0600241C5701A9074869
:103CC00002F00EFF002806D1019B9C4203D003485E
:103CD00002F00EFF012002B010BDC046A80A00206D
:103CE00010B5024802F0E4FE10BDC046A80A00204C
:103CF000F0B5CE46474680B583B006000D0090462D
:103D00001C00FFF7D5FF81466B1C05D0002C08D0A6
:103D1000194F1A4B1C6807E0300002F063FD0500E4
:103D2000F4E7174FF5E7E468002C17D02368002B61
:103D3000F9D0144B1B68002B01D0A342F3D12A0009
:103D400031002000B8474346002BECD06B46D91D0C
:103D50000A230B7001222000B847E4E74B46002BF2
:103D600007D16B1E9D41E8B203B0C0BCB946B04656
:103D7000F0BDFFF7B5FFF4E7BD3B0010240E0020B7
:103D8000CD3B00102C0E00200C4B1A68130001E0F4
:103D90001A00DB68002B08D08342F9D1002903D137
:103DA000DB68D3600023C36070470029FCD0002A81
:103DB00001D0D060F8E7014B1860F5E7240E002031
:103DC00010B5064B1C6801E09847E468002C03D04E
:103DD0006368002BF8D1F8E710BDC046240E002020
:103DE00070B5050002F0FEFC040000230122010072
:103DF0002800FFF77DFFFFF7E3FF200070BD000004
:103E000070B5A2B004000E00FFF752FF0500842237
:103E1000002101A8FFF7C6FE3300220001A90848CF
:103E2000FEF75AFF040001A8FFF710FFFFF7C8FFD5
:103E3000002D02D1200022B070BDFFF751FFF9E73D
:103E4000913C00100FB400B583B004A901C90191E1
:103E5000FFF7D6FF03B008BC04B0184710B500F058
:103E600085F810BDF0B583B005000E0000240FE00A
:103E70006B46D91D0D230B700020002816D19369C5
:103E80009B06FCD40B78136001300131F5E7013457
:103E9000B44219DA0D4B1A682F5D0D4BD3185942F5
:103EA0004B415B000B495B5EBB42E1D06B46D91DC9
:103EB0000F7000200028EAD193699B06FCD40B7890
:103EC000136001300131F5E703B0F0BD6010002050
:103ED0000080FCBF5C100020F0B583B006000F002E
:103EE000002004E06B4607331B7823702800B8429B
:103EF00015DA0E4B1A6893691024210019401C42F0
:103F00000DD1451C34186B46D81D0029EAD19369A0
:103F1000DB06FCD41368037001310130F5E700289B
:103F200001D003B0F0BD0338FBE7C04660100020AD
:103F300070B515001C000B4B1860FCF7D1FA002D72
:103F400006DA002C09DA01210748FFF71DFF70BDD2
:103F500002212800FCF706FAF3E702212000FCF713
:103F600001FAF0E7601000205002002010B5064B67
:103F70001B78064B1B78E1210123002249020448EB
:103F8000FFF7D6FF10BDC046987900109C7900104D
:103F900000400340084B42699A4201D0002070471C
:103FA000826A14339A4203D0002A03D00020F6E735
:103FB0000020F4E70120F2E7E40B0020074B9B6AA6
:103FC0001B68002B04D1054B01225242DA62704774
:103FD000024B9A6AD2681268DA62F8E7E40B0020B2
:103FE00010B50400006B01F063FB200001F060FBE2
:103FF00010BDF0B5DE4657464E46C0B582469B46DC
:10400000089E0A9F1C4B9C46624492003B6B9C4658
:10401000624407239A43914600290ED000240F2CB6
:1040200008D80B5D3D1934352B700B5D002B01D08A
:104030000134F4E743230022FA54042E00D9042665
:10404000FE62381D01F015FC3800183001F011FC3B
:104050003F6105239E1BBE617F625A46514648461A
:1040600001F058FB3860099B002B00D01F60E0BCBA
:10407000BB46B246A946F0BDFFFFFF3FF8B500249E
:1040800008E01248A3001B199A003030801801F094
:10409000E5FB0134042CF4D90D4C2700143738000B
:1040A00001F0DCFB26002836300001F0D7FB074D7D
:1040B0002800143001F0D2FB20003C3001F0CEFB90
:1040C000280001F0CBFBAF622665F8BDE40B0020B1
:1040D000640C002070B5040001F03AFB274B5A6DC8
:1040E00001325A659B6D002B0CD0244BDB6D002BED
:1040F0000DD1224B9B6DDB6AE26A934207D81F4BBE
:104100009C6504E01D4B9C655B6D012B2FD01B4A09
:10411000136E01331366E36A526E934201D9174A54
:10412000536617499A00D21892008A18536BA360FD
:104130009868E060221D42609A60E06A0A003032AE
:1041400083001D18AD00521962614A19126B0132C9
:104150004B191A6301F008FB084BDB6D002B05D0EF
:10416000064B9B6DDA6AE36A9A4203D370BDFFF790
:1041700085FFCCE701F0E0FAF8E7C046640C0020C8
:10418000E40B002070B512E001F0E2FA0A4CA36CD7
:10419000DD68281D01F092FB636D013B6365A36E32
:1041A000013BA36601F0E0FA2800FFF719FF024B7C
:1041B0009B6E002BE8D170BD640C002010B5FFF79A
:1041C000E1FF034B1B6B012BF9D901F0B5FAF6E7C0
:1041D000E40B002070B504000D001C4BDE6E986DE2
:1041E000043001F06BFB631C0CD03419174B9B6D32
:1041F0005C60A6421CD9154B186D996D043101F015
:1042000046FB70BD002DF0D0114A51680F4B986DE0
:104210008160986D8C68C460986D04306060986DA2
:10422000043088609B6D5A61136801331360E8E7BE
:10423000074DA86A054B996D043101F028FBEB6A24
:10424000A342DED9024BDC62DBE7C046640C0020EF
:10425000E40B0020F0B587B00490059116001F0014
:10426000900001F019FA041E21D0682001F014FA20
:10427000051E18D068220021FFF794FC2C63002D46
:1042800019D00023039302950D9B01930C9B00937F
:104290003B00320005990498FFF7ABFE2800FFF7BA
:1042A00019FF012005E0200001F002FAE7E70120F4
:1042B000404207B0F0BD01204042FAE770B504006B
:1042C00001F046FA002C29D0251D280001F0F6FA4D
:1042D000A36A002B03D02000183001F0EFFA174B2F
:1042E0001A6E01321A669B6DA3421AD0134A536D9F
:1042F000013B5365FFF762FE01F036FA0F4B9B6DF1
:10430000A34202D02000FFF76BFE0C4BDB6D002BAD
:1043100003D00A4B9B6DA3420DD070BD074B9C6D23
:10432000D2E7064E30003C30290001F0A5FAB36E0A
:104330000133B366E0E701F0FFF9EEE7640C00201B
:1043400010B5040001F004FA002C04D0E46A01F076
:104350000BFA200010BD014B9C6DF7E7640C0020A8
:1043600010B5040001F00AFA002C04D0E46A01F050
:1043700009FA200010BD014B9C6DF7E7640C00208A
:1043800070B504000D00042900D9042501F0E0F9FE
:10439000002C0ED0E36A9D4226D00DD92A4A926D98
:1043A000A24224D0284A926DD26AAA4221D900267C
:1043B00007E0254B9C6DEDE7234A926DA2421AD08F
:1043C0000026E562A269002A02DB05214D1BA561DA
:1043D0001E4A9900C9188900130030335B186269BE
:1043E0009A420AD0002E2CD101F0BEF970BD0026F1
:1043F000E7E70126E5E70126E3E7251D280001F0B0
:104400005DFAE36A104A526E934201D90E4A53662E
:104410000E499A00D21892008A18536BA3609A68CA
:10442000E26055609D60E06A0A00303283001D182A
:10443000AD00521962614A19126B01324B191A63AD
:10444000D0E701F079F9CFE7640C0020E40B0020FD
:1044500070B504001D4B9B6D83420AD0002808D024
:1044600001F076F92000FFF795FD002802D101F058
:104470007BF970BD251D280001F020FAE36A134A7C
:10448000526E934201D9114A536611499A00D218CB
:1044900092008A18536BA3609A68E26055609D6031
:1044A000E06A0A00303283001D18AD0052196261C3
:1044B0004A19126B01324B191A63E26A034B9B6D66
:1044C000DB6A9A42D3D301F037F9D0E7640C0020BD
:1044D000E40B0020F8B5040001F050F906002000BC
:1044E000FFF758FD051E30D01F4B1B6F002B33D13B
:1044F0001D4B9B6DDB6AE26A9A422BD31A4B012259
:104500005A670125271D380001F0D8F9E36A164AD9
:10451000526E934201D9144A536614499A00D21834
:1045200092008A18536BA3609A68E26057609F609C
:10453000E06A0A00303283001F18BF00D21962619E
:10454000CA19126B0132CB191A63300001F01AF943
:104550002800F8BD0025D5E72100183103481430A4
:1045600001F08AF90025F0E7640C0020E40B00203C
:1045700000B583B0104B7833019300230093802261
:104580000E490F48FFF766FE012805D0012806D026
:104590000C4B1B6803B000BD00F0C5FFF6E772B618
:1045A000094B01225242DA62034B0232DA650022E1
:1045B000DA6601F035F9EBE7640C00203C79001075
:1045C000BD41001064020020E40B002010B572B65B
:1045D000024B0022DA6501F0AEF810BD640C002039
:1045E000024A136F013313677047C046640C002002
:1045F000014BD86E7047C046640C0020014BD86E4A
:104600007047C046640C0020014B586D7047C0468F
:10461000640C0020002801D034307047014B986DA5
:10462000FAE7C046640C0020F8B5474B1B6F002B1F
:1046300000D082E0444BDE6E0136DE66002E0AD0EA
:10464000424BDB6AB34211D900203F4B5B6F002B1A
:1046500078D0012076E03D4A916A186D9062196524
:10466000DA6F0132DA67FFF7A9FCE9E7002039E0E9
:10467000364B01225242DA62E7E7344BDA62E4E772
:10468000D968516044E000219962116801391160D4
:10469000D96A2D4A526E914201D92B4A51662B4A52
:1046A0008C006418A1005118496B99608C68DC601B
:1046B00065608D60DC6A15003035A1000F19BC46BD
:1046C000BF00ED195D616746BD0055192D6B0135C1
:1046D000BC0012191563DA6A1B4B9B6DDB6A9A42A8
:1046E00000D30120194B9B6A1B68002BC0D0174BCD
:1046F0009B6ADB68DB685A689642BED35A699C683D
:10470000D968A1609C684C601D1D5168A942B7D052
:10471000002159611168013911609A6A002AB7D0E5
:10472000DC69196AA160DC694C60190018315468B1
:104730008C42A8D1196A5160A5E7054A1368013374
:1047400013600020F8BDC046640C0020E40B00207C
:10475000E40C002070B500F0FBFF434B1A6F013AE8
:104760001A671B6F002B7AD13F4B5B6D002B07D173
:10477000002475E0196A516015E0D968516021E0A4
:1047800000233A4A5269002A4AD0384B1B6ADB6838
:104790009A6AD869196A8160D86948601900183125
:1047A00050688842E6D00021996211680139116091
:1047B0005A699868D9688160986848601C1D51687A
:1047C000A142DAD000215961116801391160DA6A19
:1047D0002549496E8A4201D923494A6623489100F6
:1047E0008918890041184A6B9A609168D9604C60B9
:1047F0009460DC6A01003031A2001519AD0049193E
:1048000059614119096B013142191163164A926DC0
:10481000D26AD96A9142B4D3134A01215167B0E7F1
:10482000002B01D0FFF7CAFB114B1C68002C0AD1EA
:104830000D4B5C6F002C13D000F07EFF01240FE0C5
:10484000013C002C07D0FFF7EFFE0028F8D0064B04
:1048500001225A67F4E7064B00221A60E8E70024B9
:1048600000F082FF200070BD640C0020E40B0020EB
:10487000E40C002070B505000C00FFF7B1FE144BEE
:10488000D86E2B681C1983420BD9A34202D82C6026
:10489000002410E0A04202D32C6000240BE02C6026
:1048A00004E0A34201D8A0420BD22C60201A0021C0
:1048B000FFF790FC0124FFF74DFF002804D02000F3
:1048C00070BD2C600024F6E700F036FFF7E7C04625
:1048D000640C002010B5041E09D0FFF781FE0021F2
:1048E0002000FFF777FCFFF735FF002801D100F02B
:1048F00023FF10BD10B50400FFF772FE00F028FF83
:10490000044B18680019186000F02EFFFFF722FF13
:1049100010BDC046E40C002010B51B4B1B6F002BD4
:1049200003D0194B01225A6710BD174B00225A675A
:104930005B6E00E0013B9A00D2189100134A5218B6
:10494000126B002AF6D0114A9900CC18A00010185A
:10495000446B646844633032C91888000830121808
:1049600094420AD09A00D2189100084A5218526B09
:10497000D168054A91655366D6E760688900034AA5
:1049800052185063EEE7C046640C0020E40B002090
:1049900070B5040000F0DCFE002C10D0251D2800AE
:1049A00000F08CFFA36A002B03D02000183000F029
:1049B00085FF29001D4800F05FFF002303E01C4B2A
:1049C0009C6DEBE70133022B09DCE21864321278AC
:1049D000012AF7D1E218643200211170F2E700F0E9
:1049E000C3FE134BDB6D002B04D1114B9B6DA34217
:1049F00007D070BD00F0ACFEFFF7E0FA00F0B4FEA7
:104A0000F3E70B4BDB6D002B09D1084B1A68084B01
:104A10005B6D9A4206D1064B00229A65E9E700F0E9
:104A20008BFEE6E7FFF778FFE3E7C046E40B0020E4
:104A3000640C002010B50C00044B996D183100F087
:104A400026FF01212000FFF7C5FB10BD640C0020EC
:104A500070B5030010000D4CA56D802212060A43AC
:104A6000AA615A68A16DCA61A16D95680D62A16DB8
:104A700018316960A16D18319160A26D93621A6856
:104A800001321A600121FFF7A5FB70BD640C002004
:104A900070B50300080011005A680C4CA56DEA615E
:104AA000A56D96682E62A56D18357560A56D1835D3
:104AB0009560A26D93621A6801321A60002901D0D4
:104AC00001204042FFF786FB70BDC046640C002009
:104AD00030B5C368DB689A6AD869196A8160D86999
:104AE0004860180018305168814241D00021996215
:104AF000116801391160294A126F002A3ED15A69A2
:104B00009868D9688160986848601C1D5168A14206
:104B100031D000215961116801391160DA6A1F49E9
:104B2000496E8A4201D91D494A661D48910089187B
:104B3000890041184A6B9A609168D9604C60946012
:104B4000DC6A01003031A2001519AD004919596124
:104B50004119096B013142191163DA6A0F4B9B6DE0
:104B6000DB6A9A4218D90D4B01225A67012030BDE9
:104B7000196A5160BAE7D9685160CAE7084A916971
:104B8000D9618C681C626060886011001431996280
:104B9000516901315161E0E70020E8E7640C002031
:104BA000E40B002030B580231B060B430360C36871
:104BB0000269416884688C60816844684C6051680F
:104BC00081423CD0002101611168013911605A69AC
:104BD0009868D9688160986848601C1D5168A14236
:104BE00030D000215961116801391160DA6A174922
:104BF000496E8A4201D915494A66154891008918BB
:104C0000890041184A6B9A609168D9604C60946041
:104C1000DC6A01003031A2001519AD004919596153
:104C20004119096B013142191163DA6A074B9B6D17
:104C3000DB6A9A4202D9054B01225A6730BD81686E
:104C40005160BFE7D9685160CBE7C046640C0020D3
:104C5000E40B002010B5040000F07AFD034BDA6F7E
:104C60002260DB6E636000F07FFD10BD640C0020ED
:104C7000024BDA6F0260DB6E43607047640C002009
:104C8000F8B504000D0000F063FD124BD96E6368A7
:104C9000C81A2A68561C18D00E4EF66F2768B742FD
:104CA00005D08B4203D800232B6001240EE0824202
:104CB00003D800232B60012408E05B1A9B182B60AB
:104CC0002000FFF7D5FF002400E0002400F04CFD99
:104CD0002000F8BD640C0020014B01225A67704788
:104CE000640C0020042905DC002804D01031890060
:104CF00041184A607047014B986DF7E7640C00203B
:104D0000042909DC002804D01031890041184868C2
:104D10007047024B986DF7E70020F9E7640C00201C
:104D2000014B986D7047C046640C0020064BDB6D4C
:104D3000002B07D0044B1B6F002B01D0002002E09A
:104D4000022000E001207047640C0020044A936DAB
:104D50009869936DD96A926D05235B1A93617047C8
:104D6000640C002070B504000D00160000F0F0FC8B
:104D70001E4B9A6D230016339B009B58002B07D1C6
:104D80001A4B9B6D1B19643301221A70002E1ED121
:104D900000F0EAFC00F0DCFC144B9A6D23001633A3
:104DA0009B009E58002E08D0002D17D00F4B9A6DF7
:104DB000230016339B00002199500C4B986D041969
:104DC00064340023237000F0CFFC300070BD01215B
:104DD0003000FFF7FFF900F0AFFCD9E7034B996D06
:104DE000721E230016339B005A50E6E7640C002025
:104DF000F8B504000E0015001F0000F0A9FC234BBD
:104E00009A6D121964321378022B0FD01F49886DE6
:104E1000230016339B001A58B2431A508B6D1B198E
:104E2000643301221A70069B002B1ED100F09CFCFB
:104E300000F08EFC002F06D0144B9A6D2300163321
:104E40009B009B583B60114B9B6D1B1964331B7877
:104E5000022B11D000250D4B986D041964340023EA
:104E6000237000F081FC2800F8BD01211800FFF735
:104E7000B1F900F061FCD9E7044B996D23001633BA
:104E80009B005A58AA435A500125E4E7640C0020BD
:104E9000F8B504000D0016001F0000F059FC069B39
:104EA000002B05D02B0016339B001B59069A13606C
:104EB000611964310878C0B202230B70032F24D02B
:104EC0000CD8012F1AD0022F06D11635AD002B5960
:104ED00001332B5101250BE0012509E0042F06D1F8
:104EE000022817D01635AD002E51012500E001250E
:104EF000012811D000F038FC2800F8BD1635AD00AF
:104F00002A5916432E510125F2E71635AD002E51D0
:104F10000125EDE70025EBE76369A268E168916090
:104F2000E268A1685160211D5A688A422CD0002293
:104F300062611A68013A1A60E36A154A526E934236
:104F400001D9134A536613489A00D2189200821866
:104F5000536BA3609A68E26051609960E36A020053
:104F600030329900CE18B600921962618219126B24
:104F7000013283191A63E26A054B9B6DDB6A9A4220
:104F8000B8D900F0D9FBB5E7E2685A60CFE7C04670
:104F9000640C0020E40B0020F0B583B004000D0089
:104FA00001921E00089F00F0E9FB002F04D02B00A7
:104FB00016339B001B593B60631964331F78FFB2A3
:104FC00002221A70032E27D00CD8012E1CD0022EDC
:104FD00006D11635AD002B5901332B5101250CE0BC
:104FE00001250AE0042E07D1022F1BD01635AD0093
:104FF000019B2B51012500E00125012F14D000F069
:10500000C1FB280003B0F0BD1635AD002A59019E42
:1050100016432E510125F0E71635AD00019B2B51AB
:105020000125EAE70025E8E72A4B1B6F002B41D159
:105030006369A268E1689160E268A1685160261D19
:105040005A68B24233D0002262611A68013A1A608B
:10505000E36A204A526E934201D91E4A53661E49A2
:105060009A00D21892008A18536BA3609A68E26083
:1050700056609E60E66A0A003032B3009F19BF0096
:10508000D2196261CA19126B0132CB191A63E26A32
:10509000104B9B6DDB6A9A42B1D9099B002B02D061
:1050A0000123099A13600B4B01225A67A7E7E268B4
:1050B0005A60C8E7084B9A69E26196682662210047
:1050C0001831716091601A001432A2625A6901327B
:1050D0005A61DCE7640C0020E40B0020F8B5060000
:1050E0000C00150000F04AFB331964331A780221D2
:1050F00019701634A400A3590133A351012A02D018
:1051000000F040FBF8BD2A4B1B6F002B3FD17369A9
:10511000B268F1689160F268B1685160341D5A68F4
:10512000A24231D0002272611A68013A1A60F36A11
:105130001F4A526E934201D91D4A53661D499A0077
:10514000D21892008A18536BB3609A68F260546068
:105150009C60F46A0A003032A3001F19BF00D21904
:105160007261CA19126B0132CB191A63F26A104BC1
:105170009B6DDB6A9A42C3D9002D01D001232B60BD
:105180000B4B01225A67BBE7F2685A60CAE7094B2A
:105190009A69F261946834623100183161609160FB
:1051A0001A001432B2625A6901325A61DEE7C0460F
:1051B000640C0020E40B002070B504000D000028F2
:1051C0000BD000F0C5FA631964331B78022B07D0AB
:1051D000002400F0C9FA200070BD044B9C6DF0E77C
:1051E00064196434002323700124F2E7640C002066
:1051F00070B505000C00160000280BD000F0A8FACE
:105200001634A1004C594B59B3434B5100F0ACFA42
:10521000200070BD014B9D6DF0E7C046640C00207E
:10522000074B1A681368002B06D101330360002B6B
:1052300004D1D368186870470023F7E70020FAE725
:10524000E80C002010B54160006191420CD8D21AE0
:1052500083699A4201D3012010BD011D094B586892
:1052600000F015FB0020F7E79A4201D2994206D2DE
:10527000011D044B186800F00AFB0020ECE7012038
:10528000EAE7C046E80C002070B504000D001600E7
:1052900005E0A3699C4665442000236A9847A369FA
:1052A00059192B0032002000FFF7CCFF0028F0D165
:1052B00070BD70B505000E000C4B1B68DB68DC6828
:1052C000201D00F0FBFA2423E35C5A0707D40122D7
:1052D00093432332A354236A2000984770BD3200C1
:1052E00029002000FFF7D0FFF5E7C046E80C0020BA
:1052F00010B505E0DB68186801214942FFF7D9FFC6
:10530000044B1B681A68002AF4D1024A51681160E4
:10531000536010BDE80C002070B50500FFF768F978
:105320000400074B9B68834205D800232B60044B85
:105330009C60200070BDFFF7DBFF01232B60F6E7C8
:10534000E80C002070B582B004000D00FFF748F9AA
:1053500001A8FFF7E1FF0600019B002B23D1002DE0
:1053600001D1A04213D2002D05D0104A5268126814
:10537000002A13D10125A11B0C4BD8682A0000F08C
:1053800011FFFFF7E7F900280AD002B070BDFFF760
:10539000E1F931002000FFF78CFFF6E71D00EAE796
:1053A00000F0CAF9F1E7FFF7D5F9EEE7E80C0020C5
:1053B00030B585B0324BD868002201A900F0C7FC97
:1053C00000285AD0019B002BF4DB039C6369002B5F
:1053D00002D0201D00F072FA6846FFF79DFF05001D
:1053E00001990929E6D88900264B59588F4624226D
:1053F000A35C01210B43A3540299A3699C46614419
:10540000029B02002000FFF71DFF0028D2D02423BA
:10541000E35C5A0707D4012293432332A354236A3F
:1054200020009847C6E70299A3699C4661442A0078
:105430002000FFF729FFF2E72422A35C01218B4320
:10544000A354B7E72422A35C01210B43A354029980
:10545000A1610918030002002000FFF7F3FEA9E78D
:105460002423E35C9A0704D5012293432332A354F7
:10547000A0E7200000F01CF99CE705B030BDC04655
:10548000E80C00204479001000B583B001A8FFF7B4
:10549000C7FE0199FFF756FFFFF78AFFF6E770B5E1
:1054A00000F056F90F4BDB68002B02D000F05CF9DE
:1054B00070BD0C4C26001036300000F0CFF92500EE
:1054C0002435280000F0CAF92660656000220C210E
:1054D0000A2000F009FBE0600028E7D0024900F054
:1054E00011FEE3E7E80C00206C790010F0B5C64629
:1054F00000B580460F0015001E00079CFFF7CFFF88
:1055000043462360A761E661069B2362201D00F0ED
:10551000B0F9002D04D02422A35C04210B43A35432
:1055200080BCB846F0BD00B583B0FFF7B8FF094BAB
:10553000DB68002B0CD0074B383301930323009317
:105540000023802204490548FEF784FE03B000BD15
:105550000020FBE7E80C002074790010895400104B
:10556000F0B585B003900D0016001F00282000F054
:1055700093F8041E0BD024230022C25401900A9BEE
:1055800000933B00320029000398FFF7AFFF200093
:1055900005B0F0BD30B585B004001D00124BD868D1
:1055A00000281FD0019102920394052913DCFFF714
:1055B000BDFB022807D00C4BD8680023002201A9AC
:1055C00000F0D1FA0CE0084BD8680023089A01A932
:1055D00000F0C9FA04E000232A0001A900F03CFB16
:1055E00005B030BD0020FBE7E80C0020014B986BB4
:1055F0007047C046E80C00208069704770B5040011
:105600000D0000F0A5F8002D07D02422A35C042192
:105610000B43A35400F0A8F870BD2422A35C04211E
:105620008B43A354F6E710B5040000F091F824234F
:10563000E35C5B0704D4002400F096F8200010BD62
:105640000124F9E710B5FFF7EEFF10BD4068704781
:105650000068704710B5040000F07AF82423E35C7A
:10566000DB0704D4002400F07FF8200010BD0124E3
:10567000F9E710B5040000F06BF8E46900F074F885
:10568000200010BD70B504000D0000F061F8E56168
:1056900000F06AF870BDC04610B50400FEF7A0FF28
:1056A0002000FEF761FA0400FFF754F8200010BD57
:1056B00010B5041E06D0FEF793FF2000FEF766FA31
:1056C000FFF748F810BD00000000000000000000D7
:1056D00082B00023019372B6019B002BFCD002B074
:1056E00070470B4A13681868203080F3098802203D
:1056F00080F31488BFF36F8F3FBCAE4608BC04BC78
:1057000062B61847C046C046C046C046C046C046FE
:10571000BC0C002010B5031F802464041C60043BF3
:105720001960043B02491960143B1A60403810BDEF
:10573000D156001070477047044B802252051A6002
:10574000BFF34F8FBFF36F8F7047C04604ED00E08B
:1057500072B6044A136801331360BFF34F8FBFF36F
:105760006F8F704768020020034A1368013B136083
:10577000002B00D162B6704768020020EFF3108062
:1057800072B6704780F310887047EFF30980104BB2
:105790001A6820381060F0C044464D4656465F46B1
:1057A000F0C008B572B6FFF7B7F862B60CBC116866
:1057B00008681030F0C8A046A946B246BB4680F340
:1057C00009882038F0C81847C046C046C046C046C1
:1057D000BC0C002010B5FFF7D1FF0400FEF724FF3A
:1057E000002803D0034B802252051A602000FFF7E7
:1057F000C9FF10BD04ED00E0054B00221A60054909
:105800000A60054A0549116007221A607047C046C0
:1058100010E000E018E000E014E000E04F4B14005E
:1058200010B50C4B1968FF2212040A431A6019685C
:10583000FF2212060A431A60FFF7DEFF064B002222
:105840001A60FFF74EFFFFF767F8FFF741FF0020F0
:1058500010BDC04620ED00E06802002003000833C0
:105860004360012252428260C360036100230360EF
:10587000704700230361704743684B609A688A60F1
:10588000516099600861036801330360704730B567
:105890000C68631C10D0030008331A005B681D6895
:1058A000A542FAD953684B6099608A6051600861DB
:1058B00003680133036030BD0269F3E7036941689F
:1058C00082688A60416851605A68824206D000222C
:1058D00002611A68013A1A601868704782685A6053
:1058E000F5E7000010B50400FFF732FFA26BE36B91
:1058F0009A4204D00024FFF737FF200010BD012496
:10590000F9E710B50400FFF723FFA36B002B04D1C8
:105910000124FFF729FF200010BD0024F9E770B52E
:1059200004001600856B026C002A20D0002E0DD1D9
:105930004068FEF73DF96368226C944663446360F7
:10594000A268934213D32368636010E0C068FEF737
:105950002FF9236C5A42E168CB1AE36021688B422D
:1059600003D2A3689C466244E260022E03D0013554
:10597000A563002070BD002DF9D0013DF7E710B5FB
:10598000030008001A6C002A0AD0D9688918D96067
:105990009C68A14201D31968D960D968FEF708F95B
:1059A00010BD70B50500FFF7D3FE4523EC5C64B273
:1059B00001E0013C64B2002C0BDD6B6A002B08D0C7
:1059C00028002430FFF784F80028F2D0FFF784F98C
:1059D000EFE74523FF22EA54FFF7C6FEFFF7B8FEC4
:1059E0004423EC5C64B201E0013C64B2002C0BDDAA
:1059F0002B69002B08D028001030FFF769F8002829
:105A0000F2D0FFF769F9EFE74423FF22EA54FFF7EA
:105A1000ABFE70BDF8B504000D00002852D0C36B7A
:105A2000002B51D0016C00260F0C1A0C002F13D143
:105A300090B2002803D1002E14D0002045E0081CAD
:105A400089B29BB24B4380B292B242431B0CD31833
:105A50001B0CF0D00126EEE792B2002AFAD13A1CD4
:105A6000181CEDE7FFF774FE2268E36B206C010061
:105A700059435118A1600021A1636260013B434377
:105A8000D318E360FF234422A3540132A354002D12
:105A90000FD12369002B03D1FFF766FE012014E02C
:105AA00020001030FFF714F80028F5D0FFF744FE6F
:105AB000F2E720001030FFF7D1FE20002430FFF77E
:105AC000CDFEE9E7002000E00020F8BD10B503009E
:105AD0000298002906D10060C36301640121FFF729
